:02000000B9291C
:100008008A014E018C1E5F288C124001FF309A0035
:1000180098002008031D1428981021089A003828F1
:100028002008013A031D1C28981122089A00382834
:100038002008023A031D2428181123089A0038289A
:100048002008033A031D2C28981324089A003828FE
:100058002008043A031D3428181225089A00382865
:100068002008981226089A00A00A2008053C031CBC
:10007800A001A70B4D282B30A7002808031DA803B3
:100088003708031DB7035308031DD3035508031D81
:10009800D5034C08031DCC034D08031DCD034E08A2
:1000A800031DCE035708031DD7035B08031DDB039D
:1000B8005A08031DDA034E010D1EB82942011D1D01
:1000C80067281908B8299D1C6C281D121D16B82907
:1000D8002208031D76281908A307533A031DB529DA
:1000E800A20AB8292208013A031D81281908A30782
:1000F8004E3A031DB529A20AB8292208023A031D5F
:100108008C281908A307443A031DB529A20AB8295F
:100118002208033A031D97281908A3074E3A031D1E
:10012800B529A20AB8292208043A031DA2281908E9
:10013800A307213A031DB529A20AB8292208053ABE
:10014800031DAB281908A307A700A20AB82922088B
:10015800063A031DC0281908A307A800A20A280800
:10016800023C031CB52927082106031DB8292808C5
:100178002006031DB829B5292208073A031DC928F6
:100188001908A307A900A20AB82929080319DD2814
:100198002908013A0319EC282908023A0319FA2810
:1001A8002908033A031915292908043A0319672964
:1001B800B5292208083A031DB5291908A307031D04
:1001C800B52908308A00BC218A014001AD16B5293D
:1001D8002208083A031DB5291908A307031DB529E4
:1001E80008308A00BC218A013211B5292208083A50
:1001F800031D03291908A307AE00A20AB82922087B
:10020800093A031DB5291908A307031DB5290830A4
:100218008A00BC218A012708B3002808B4003215D7
:10022800B5292208083A031D1E291908A307AE009C
:10023800A20AB8292208093A031D27291908A30781
:10024800AF00A20AB82922080A3A031D3029190862
:10025800A307B000A20AB82922080B3A031D3929BE
:100268001908A307B100A20AB82922080C3A031DED
:10027800B5291908A307031DB52908308A00BC2130
:100288008A014001520842012E06031D64292008F4
:100298003006031D642921082F06031D6429083030
:1002A8008A0012218A0108308A006A218A012708F7
:1002B800B3002808B400B2014001AD152D17AD17E1
:1002C8004001AD16B5292208083A031D70291908FE
:1002D800A307AE00A20AB8292208093A031D792902
:1002E8001908A307AF00A20AB82922080A3A031D71
:1002F80082291908A307B000A20AB82922080B3AD4
:10030800031D8B291908A307B100A20AB8292208DE
:100318000C3A031DB5291908A307031DB529083090
:100328008A00BC218A014001520842012E06031DA1
:10033800B22920083006031DB22921082F06031D03
:10034800B22908308A0012218A0108308A006A21FD
:100358008A01B2014001AD15AD17B5294001AD16AE
:10036800B5294201A201A30109008B018801FF30D0
:10037800980030309900FF309A00413092003430B4
:1003880093000030940008309600840120308500E6
:100398000830F100F0018001840AF00BCF29850AAA
:1003A800F10BCE29FF30A100A200A300A400A500F4
:1003B800A6000C1B2D1650019B019A0141309E008E
:1003C80000001D084201A0004001B90050011C08AE
:1003D8004201A1004001B800B030BA00B030BB0003
:1003E8008030A9001925A90BF629BF308700803075
:1003F80086001600A53A0319802AAE01AF01B001A4
:100408000130B100B201B301B401B501B601053044
:10041800A90019251F39AC00173C031C0D2A2C080C
:10042800073C031C302A3408BD002C0A1E2503187B
:100438000D2A03102C0D0B0034146E2AB4146E2AE6
:1004480034156E2AB4156E2A34166E2AB4166E2A1E
:1004580034176E2AB4176E2A08302C02C000073CE5
:10046800031C4F2A3508BD00400A1E2503180D2A13
:100478000310400D0B0035146E2AB5146E2A35157D
:100488006E2AB5156E2A35166E2AB5166E2A3517D8
:100498006E2AB5176E2A10302C02C000073C031CC8
:1004A8000D2A3608BD00400A1E2503180D2A031020
:1004B800400D0B0036146E2AB6146E2A36156E2AB5
:1004C800B6156E2A36166E2AB6166E2A36176E2A94
:1004D800B6176E2AA90B0D2A2C08BF0020308500FC
:1004E800F0308400203E86006030F000FF301A00B3
:1004F800F00B7A2AAD15A32A1600AE001600AF003D
:100508001600B0001600B1001600B2001600B300C5
:100518001600B4001600B5001600B6001600BF009D
:1005280020308500F0308400BF3087008030203EC6
:1005380086006030F00016001A00F00B9F2A7D013B
:1005480055308F00AA308F000F100B30CB000D30C4
:10055800C5000C30C6007E0105309B0008309C00A9
:1005680007309D00B801C301CE014130B900043005
:10057800C4000830E5000830C5007D0155308F0003
:10058800AA308F000F14420120309E0000309F00D7
:1005980033309B009C0190309D0043019001400145
:1005A800991293129316931293169312931643016A
:1005B800910192018F0180308F00FF308E004F3003
:1005C8008D00283090004B01A3309F00B3309D0070
:1005D80080309E004E0196160D1217164001C0304D
:1005E8008B0025254F30AA00AB012A25AA0101302E
:1005F800AB002A254F30AA00AB012F25AA010130F4
:10060800AB002F2534257E30392526303925243076
:10061800AC0001303925AC0B0D2B2525342578305D
:100628003925263039252430AC0001303925AC0B6A
:10063800192B252534257E303925013039252430DC
:10064800AC0000303925AC0B252B25253425783016
:100658003925013039252430AC0000303925AC0B60
:10066800312B2525402590193E2B08308A00342748
:100678008A01372B40012D1A4D2BAD1D4D2B370804
:10068800031D4D2BAD1108308A00F5248A01FF3077
:10069800B7004001CA080319572BA030D30008300F
:1006A8008A004E238A01D8080319672BDA08031D2C
:1006B800672B08308A00A9228A015808083A031DC6
:1006C800672BD8015C1451080319BC2B2808031D9B
:1006D800BC2BA030D300511C962B501C7D2BFF3017
:1006E800AB0041084525AC007F39AA00AA0AAA0A2E
:1006F8004C25D01C892BFF30AB0042085125AC009B
:100708007F39AA00AA0AAA0A4C25501D952BFF304A
:10071800AB0043085825AC007F39AA00AA0AAA0AE8
:100728004C25B72B501CA12BAB0141084525AC002B
:100738007F39AA00AA0AAA0A4C25D01CAC2BAB0107
:1007480042085125AC007F39AA00AA0AAA0A4C25FA
:10075800501DB72BAB0143085825AC007F39AA00C0
:10076800AA0AAA0A4C2540255F25D1030230A80011
:10077800AD1FC02B6425AD1340015308031DCE2BBC
:100788004201B2014001D801DD0108308A00002091
:100798008A01F42BD4015808031DDB2B4201321CBB
:1007A800E02B400110308A0040208A01F42B1030E1
:1007B8008A0000208A01F42B4001DD012E08122551
:1007C800A1002F081225A20030081225A300310825
:1007D8001225A40032081225A50033081225A60008
:1007E8002D1F012C4201A408031D012C0430A50073
:1007F800FF30A400A60140012D134001AD1E0F2CAF
:100808004201A408031D0F2C0130A500FF30A400ED
:10081800A6014001AD1240019019652C1030DB0093
:100828002D18652C2D14A030D300CA08031D652C83
:10083800D10164254201B2014001D20A5208173C95
:1008480003182C2CD2014201B218652CB2144001B5
:100858005208AC00073C031C332C34083E2C5208C9
:100868000F3C031C3B2C0830AC0235083E2C1030E2
:10087800AC023608BD002C0A1E25031C212CFF30B3
:10088800AB005208073C031C4C2C2C084525552C62
:1008980052080F3C031C532C2C085125552C2C08AE
:1008A8005825AC007F39AA00FF30AB004C25AC0AB4
:1008B8002C0A7F39AA00AB014C2540255F2542014F
:1008C80032144001DB08031D6B2C90192D100D19F3
:1008D800912C19251030DB00AD18912CAD14A030E7
:1008E800D3004201B20140015C10D80803198D2CD5
:1008F80059188A2CD80A5808073A031D912C7825CC
:100908007825782578257825AD15912CD8015C14A3
:10091800912CCA08031D912C6425DB08031DD72CD4
:10092800AD1CD72C0D1DD72CAD10CA08031DD72C14
:10093800D101D808031DD72C5C18D72C6E25CF18E9
:10094800AC2CD808031DD72CD9010130D800D72CDE
:10095800692540255F257325AD1519250739C1007F
:1009680019250739C20019250739C300C401C50173
:10097800C60119250F39103EC70019250F39103E39
:10098800C80047060319C12C19250F39103EC900A4
:1009980047060319C82C490848060319C82C0A3009
:1009A800CB000730CA000C18012D1030DB002D19C0
:1009B800012D2D1542013218E92CA408031D912C94
:1009C800A501FF30A400A601012D4001A030D300ED
:1009D80042013219F82CA408031D912C0230A500FD
:1009E800FF30A400A601012DA408031D912C03309B
:1009F800A500FF30A400A601012D4001DB08031D5E
:100A0800072D0C182D114201A40803190F2D4E01B2
:100A18008D1D0F2D7D2540013E2B112DF100083035
:100A28008A007108D3278A01080008308A00DF2469
:100A38008A010800F10008308A007108BB248A0185
:100A4800080008308A000C278A01080008308A004C
:100A580003278A01080008308A00FA268A0108005C
:100A680008308A0017278A010800F10008308A0038
:100A7800710824278A01080008308A00F5268A01AF
:100A88000800F10008308A007108C1248A010800B2
:100A980008308A00B5248A010800F10008308A006D
:100AA8007108CB248A010800F10008308A00710817
:100AB800D5248A01080008308A00F0268A01080037
:100AC80008308A0084248A01080008308A007C24BF
:100AD8008A01080008308A0016228A0108000830B6
:100AE8008A0032228A01080008308A0084228A019A
:0C0AF800080008308A00A2258A010800CE
:10100000D508031D6528D408031D2428561C1E2856
:1010100056102E08D327A1002F08D327A20030088E
:10102000D327A3003108D327A4003208D327A50073
:101030003308D327A6000830D50065285614D610EB
:10104000DF24AA3A0319D614D61846285408AC004F
:10105000F520A100AC0A2C08F520A200AC0A2C084F
:10106000F520A300AC0A2C08F520A400AC0A2C083B
:10107000F520A500AC0A2C08F520A600D40A5408D7
:10108000163C031CD4010230D50065285408AC007E
:10109000E020A100AC0A2C08E020A200AC0A2C0839
:1010A000E020A300AC0A2C08E020A400AC0A2C0825
:1010B000E020A500AC0A2C08E020A600D40A5408C1
:1010C0000E3C031CD4010130D5005708031DA8288D
:1010D0007C24FF30C000A920AE0803197828043012
:1010E000C000A920A920A920A920A920A920A428BE
:1010F000AF08031983280830C000A920A920A9201F
:10110000A920A920A428B00803198D281030C000F8
:10111000A920A920A920A920A428B108031996284C
:101120002030C000A920A920A920A428B2080319B2
:101130009E284030C000A920A920A428B308031984
:10114000A4288030C000A920F526F0264008D7004A
:101150000800DF241F39AC00173C031CA9282C0809
:10116000073C031CB6282C08C124BF282C080F3CC0
:10117000031CBD282C08CB24BF282C08D524AC0088
:101180007F39AA00DF247F38AB007F3A0319AB0117
:10119000B524AC0A2C087F39AA00DF247F38AB00C5
:1011A0007F3A0319AB01B524AC0A2C087F39AA0099
:1011B000DF247F38AB007F3A0319AB01B524080068
:1011C0000B00FF34FF34FF34FF34FF34FF348E3420
:1011D0005434543434342C3405342C340534FF3432
:1011E000FF34FF34FF34FF34FF340B00FF34FF348F
:1011F000FF34FF34FF34FF34163405341634E4343E
:10120000FF340F3464348634AC340E34BE340F34BF
:101210003C34BC34FF34D534FF34FF34FF34FF3466
:10122000FF34FF3440015208AC003F06031968291F
:101230004201321440012C08173C031C68292C0879
:10124000073C031C362903102C0D0B0034106829B1
:10125000B410682934116829B41168293412682936
:10126000B412682934136829B413682908302C0291
:10127000C000073C031C4F290310400D0B00351024
:101280006829B510682935116829B5116829351202
:101290006829B512682935136829B51368291030F3
:1012A0002C02C000073C031C68290310400D0B00F2
:1012B00036106829B610682936116829B6116829D0
:1012C00036126829B612682936136829B6136829B8
:1012D00042010800420131084001AC00173C031CE8
:1012E000BA292C08073C031C882903102C0D0B007D
:1012F0003414BA29B414BA293415BA29B415BA2940
:101300003416BA29B416BA293417BA29B417BA2927
:1013100008302C02C000073C031CA1290310400D1B
:101320000B003514BA29B514BA293515BA29B515E3
:10133000BA293516BA29B516BA293517BA29B517F3
:10134000BA2910302C02C000073C031CBA29031034
:10135000400D0B003614BA29B614BA293615BA292D
:10136000B615BA293616BA29B616BA293617BA29C1
:10137000B617BA29420108002808AA002708AB00BE
:101380000310AA0CAB0C0310AA0CAB0C0310AA0C94
:10139000AB0CF03086002B088607203087002A0827
:1013A000873D0108AC0027080739013EAD00AC0CB1
:1013B000AD0BD729031C142A27080739013EAD00BD
:1013C000FF30AC000310AC0DAD0BE3292C088105F8
:1013D0002808013C0318102A2708193C0318102A72
:1013E0002708653C03180C2A2708BB3C0318092A68
:1013F0002708DA3C0318062A2708F43C0318032AB6
:1014000040019C22122A40019622122A4001902279
:10141000122A40018A22122A400184228422122A9E
:10142000400184224001AD1542010800CF142E086E
:10143000031D08002F08031D08003008031D0800C5
:101440003108031D08003208031D0800CF100800F2
:1014500069224F180800B3033308093C0318080039
:101460000930B30069224F180800B2033208093C62
:10147000031808000930B20069224F180800B103B0
:101480003108093C031808000930B10069224F18DF
:101490000800B0033008093C031808000930B00008
:1014A00069224F180800AF032F08093C03180800F1
:1014B0000930AF0069224F180800AE032E08093C1E
:1014C00003180800B301B201B101B001AF01AE01D0
:1014D00008004F103308031D08003208031D0800E0
:1014E0003108031D08003008031D08002F08031DE4
:1014F00008002E08031D08004F140800B30A330823
:10150000093C03180800B301B20A3208093C031869
:101510000800B201B10A3108093C03180800B10102
:10152000B00A3008093C03180800B001AF0A2F08C0
:10153000093C03180800AF01AE0A2E08093C031845
:1015400008000930AE00AF00B000B100B200B30037
:1015500008007C240730CB24AC007F39AA00FF3080
:10156000AB00B5240630CB24AC007F39AA00FF3095
:10157000AB00B5240530C0007030DA005808013ADD
:101580000319242B4008CB24AC00AC0A2C0A7F3969
:10159000AA00FF30AB00B524C0036030DA00580861
:1015A000023A0319242B4008CB24AC00AC0A2C0AC5
:1015B0007F39AA00FF30AB00B524C0035030DA00F9
:1015C0005808033A0319242B4008CB24AC00AC0A7A
:1015D0002C0A7F39AA00FF30AB00B524C00340308D
:1015E000DA005808043A0319242B4008CB24AC0035
:1015F000AC0A2C0A7F39AA00FF30AB00B524C00327
:101600003030DA005808053A0319242B4008CB245F
:10161000AC00AC0A2C0A7F39AA00FF30AB00B5241D
:10162000C0032030DA005808063A0319242B40087A
:10163000CB24AC00AC0A2C0A7F39AA00FF30AB00E7
:10164000B5240830D8004B2BD90A0330D9055908E6
:101650000B00372B2D2B372B412B4008C124AC001E
:101660002C0A7F39AA00FF30AB00B5244B2B400871
:10167000CB24AC002C0A7F39AA00FF30AB00B52484
:101680004B2B4008D524AC002C0A7F39AA00FF3030
:10169000AB00B5244B2BF526F02608004A1C8A2BFC
:1016A0004C08031D8A2B0830A900AB012903C12473
:1016B000AC007F39AA00B524AC0A2C087F39AA00F7
:1016C000B5242C0A7F39AA00B524A90B562BC40ACD
:1016D0004408073C031CC401FF30AB004408C1248C
:1016E000AC007F39AA00AA0A3408BD00440ABB2412
:1016F0000318AA0AB5244708CC004408031D832B0D
:10170000CB08031DCB03CB08031D8A2B41084406DD
:1017100003194A10CA1CBF2B4D08031DBF2B0830EC
:10172000A900AB012903CB24AC007F39AA00B52462
:10173000AC0A2C087F39AA00B5242C0A7F39AA00EC
:10174000B524A90B922BC50A4508073C031CC5010B
:10175000FF30AB004508CB24AC007F39AA00AA0AB1
:101760003508BD00450ABB240318AA0AB524480859
:10177000CD004A18BF2B420845060319CA104A1D5E
:10178000792C4E08031D792C0830A900AB012903E0
:10179000D524AC007F39AA00B524AC0A2C087F39C7
:1017A000AA00B5242C0A7F39AA00B524A90BC72B9F
:1017B000C60A4608073C031CC601FF30AB004608BA
:1017C000D524AC007F39AA00AA0A3608BD00460A13
:1017D000BB240318AA0AB5244908CE00CA18792CDC
:1017E00043084606031D792CD00141084206031D1B
:1017F000092C2D1A072C3408BD00410ABB24031CF8
:10180000092C3508BD00420ABB24031C092C5014C6
:10181000D01442084306031D1D2C2D1A1B2C35081D
:10182000BD00420ABB24031C1D2C3608BD00430A20
:10183000BB24031C1D2CD014501541084306031D66
:10184000312C2D1A2F2C3408BD00410ABB24031C57
:10185000312C3608BD00430ABB24031C312C501424
:1018600050155008073A03193B2C50080319762CE1
:101870007E228422752C410807390B00462C482C07
:101880004B2C502C562C5D2C632C6D2C8A22752CE5
:101890008A228A22752C8A228A228A228A22752CFE
:1018A0000830A9008A22A90B522C752C0630A900F9
:1018B0008A22A90B582C9022752C902290229022DB
:1018C0008A228A22752C0630A9009022A90B652C49
:1018D0008A228A228A228A22752C9622902290229B
:1018E0000830A9008A22A90B722CAD151030D10046
:1018F0004A11F526F02608002430AA00AB01032780
:10190000FA26AA0B7F2C08007C240830A900FF309F
:10191000AB002903C124AC007F39AA00AA0A34080D
:10192000BD002908BB240318AA0AB5242903CB2427
:10193000AC007F39AA00AA0A3508BD002908BB24DB
:101940000318AA0AB5242903D524AC007F39AA00BC
:10195000AA0A3608BD002908BB240318AA0AB52420
:10196000A90B892CF526F0260800AC1FB92CFA2605
:10197000080003270800BE000310BD0CBE0BBC2CE2
:10198000080007390B000434013422341F34843436
:101990008134A2349F3407390B0007340D341634D8
:1019A0001C3487348D3496349C3407390B000A3448
:1019B0001034133419348A34903493349934083001
:1019C000BC007010381870143819F009381BF00971
:1019D000B81BF009031070180314BB0CBA0CB90C37
:1019E000B80CBC0BE12C38080800F00150013F3066
:1019F0009B0080309A0014309E009A251E113F30C3
:101A00009B0080309A0024309E00A5309C003F301F
:101A10009D009A259A0A40012E0850019C003F30F3
:101A20009D009A259A0A40012F0850019C003F30E2
:101A30009D009A259A0A4001300850019C003F30D1
:101A40009D009A259A0A4001310850019C003F30C0
:101A50009D009A259A0A4001320850019C003F30AF
:101A60009D009A259A0A4001330850019C003F309E
:101A70009D009A259A0A4001340850019C003F308D
:101A80009D009A259A0A4001350850019C003F307C
:101A90009D009A259A0A4001360850019C003F306B
:101AA0009D009A259A0A40013F0850019C003F3052
:101AB0009D009A259A0AFF309C003F309D001A082D
:101AC0001F391F3A0319672D9A259A0A5B2D9E121A
:101AD0009A251E1120308700F03086000330A000C8
:101AE000A1012030A1073F309B0080309A002108DF
:101AF0009A0714309E009A251E113F309B008030BB
:101B00009A0021089A0724309E0016009C003F305E
:101B10009D001A081F391F3A0319912D9A259A0A18
:101B2000852D9E129A251E119A0A03199B0AA00B55
:101B3000712D08008B1355309F00AA309F009E1412
:101B40008B17080042012508043A031DAE2D240915
:101B5000031DAC2D0D30A400D62508002508033A3E
:101B6000031DB92D2409031DB72D0D30A400262611
:101B700008002508023A031DC42D2409031DC22DA7
:101B80000A30A400782608002508013A031DCF2D4D
:101B90002409031DCD2D0930A400B826080024090E
:101BA000031DD42D0930A400B826080042012408E2
:101BB0000D3A031DDD2D5330222E24080C3A031D4F
:101BC000E32D4E30222E24080B3A031DE92D44301C
:101BD000222E24080A3A031DEF2D4E30222E24080F
:101BE000093A031DF52D2130222E2408083A031D41
:101BF000FB2D2108222E2408073A031D012E200860
:101C0000222E2408063A031D072E2508222E24081A
:101C1000053A031D0D2E3108222E2408043A031D17
:101C2000132E3308222E2408033A031D192E3408DC
:101C3000222E2408023A031D1F2E2E08222EA6094A
:101C4000260A222E9A00A607A403080042012408AF
:101C50000D3A031D2D2E5330742E24080C3A031D0B
:101C6000332E4E30742E24080B3A031D392E443087
:101C7000742E24080A3A031D3F2E4E30742E240879
:101C8000093A031D452E2130742E2408083A031DFD
:101C90004B2E2108742E2408073A031D512E2008CC
:101CA000742E2408063A031D572E2508742E240886
:101CB000053A031D5D2E2E08742E2408043A031DD8
:101CC000632E3308742E2408033A031D692E34084A
:101CD000742E2408023A031D712E4001520842015D
:101CE000742EA609260A742E9A00A607A4030800DB
:101CF000420124080A3A031D7F2E5330B42E2408D3
:101D0000093A031D852E4E30B42E2408083A031DCF
:101D10008B2E4430B42E2408073A031D912E4E30EA
:101D2000B42E2408063A031D972E2130B42E240821
:101D3000053A031D9D2E2108B42E2408043A031DE4
:101D4000A32E2008B42E2408033A031DA92E25082B
:101D5000B42E2408023A031DB12E4001520842015C
:101D6000B42EA609260AB42E9A00A607A4030800DA
:101D700042012408093A031DBF2E5330EC2E2408DB
:101D8000083A031DC52E4E30EC2E2408073A031DD9
:101D9000CB2E4430EC2E2408063A031DD12E4E30B3
:101DA000EC2E2408053A031DD72E2130EC2E2408F2
:101DB000043A031DDD2E2108EC2E2408033A031DEE
:101DC000E32E2008EC2E2408023A031DE92E2508F4
:101DD000EC2EA609260AEC2E9A00A607A4030800FA
:101DE0002530AA00AB01FA2608002530AA00AB0175
:101DF000032708001727783024272A0824272B08D0
:101E000024270C27080017277E3024272A08242798
:101E10002B0824270C2708000808F1004301901321
:101E2000101311151119122F7108880008000808E5
:101E3000F1004E018D10430190131013111411186D
:101E40001F2F710888000800F0000808F1004E01FB
:101E50008D100D11430170088C004E018D1C2E2F2A
:101E60008D10710888000800FF30A100A200A300B7
:101E7000A400A500A6000630A90021308400850139
:101E8000EF3080000230CE27DF3080000230CE27D6
:101E9000F73080000230CE27FD3080000230CE27A0
:101EA0007F3080000230CE27BF3080000230CE2746
:101EB000FE3080000230CE27FB3080000230CE277B
:101EC000FF308000840AA90B402F0C30A90029089C
:101ED000C027AA00FF30AB000327F5260230CE272B
:101EE0002908C027AA00AB010327AA0AFF30AB00CC
:101EF0000327F5260230CE272908C027AA00AA0A00
:101F0000AB010327AA0AFF30AB000327F5260230F6
:101F1000CE272908C027023EAA00AB010327A90B40
:101F2000672FF5260C30A9002908C027AA00FF302A
:101F3000AB00FA26F0260230CE272908C027AA00D7
:101F4000AB01FA26AA0AFF30AB00FA26F0260230CF
:101F5000CE272908C027AA00AA0AAB01FA26AA0A96
:101F6000FF30AB00FA26F0260230CE272908C02722
:101F7000023EAA00AB01FA26A90B942FF026080016
:101F80000B00013419341C341F341334163422343A
:101F900010340D3401340A3407340434A800A8087E
:101FA000031DCF2F08000F390B000534F53416340C
:101FB0005434E4344C340C34D53404344434843450
:0A1FC0002C340F3434340E348E3408
:10200000D508031D08005D08AC002320A100AC0A20
:102010002C082320A200AC0A2C082320A300AC0A21
:102020002C082320A400AC0A2C082320A500AC0A0D
:102030002C082320A600DD0A5D08163C031CDD01E8
:102040000230D50008000B00FF34FF34FF34FF34AA
:10205000FF34FF344C342E3484340F348C34FF344A
:102060008E343C34BE34FF340F34BE340E3434343A
:10207000FD342A34FF34FF34FF34FF34FF34FF349F
:10208000D508031D08005D08AC006320A100AC0A60
:102090002C086320A200AC0A2C086320A300AC0A21
:1020A0002C086320A400AC0A2C086320A500AC0A0D
:1020B0002C086320A600DD0A5D08143C031CDD012A
:1020C0000230D50008000B00FF34FF34FF34FF342A
:1020D000FF34FF344C340E342F340E340F342E348E
:1020E000FF341634FF342E34BE34843434340A348E
:1020F000FF34FF34FF34FF34FF34FF3450006500F9
:1021000074006500720020005300680061006200E6
:1021100069006E006F002000320035004D00610044
:1021200072003200300032003400200063006F0083
:1021300064006500200066006F00720020005400FB
:1021400079006D006B00720073002000430079007D
:10215000700068006500720063006F006E00200070
:1021600037002000320030003200340020006200CE
:102170006100640067006500200056003000200008
:102180007700770077002E00770069007200650005
:10219000320077006900720065002E006F00720047
:0421A00067002100B3
:107F0000FF0FFF0FFF0FFF0FFF0FFF0FFF0FFF0F01
:107F1000FF0FFF0FFF0FFF0FFF0FFF0FFF0FFF0FF1
:107F2000FF0FFF0FFF0FFF0FFF0FFF0FFF0FFF0FE1
:107F3000FF0FFF0FFF0FFF0FFF0FFF0FFF0FFF0FD1
:107F4000FF0FFF0FFF0FFF0FFF0FFF0FFF0FFF0FC1
:107F5000FF0FFF0FFF0FFF0FFF0FFF0FFF0FFF0FB1
:107F6000FF0FFF0FFF0FFF0FFF0FFF0FFF0FFF0FA1
:107F7000FF0FFF0FFF0FFF0FFF0FFF0FFF0FFF0F91
:107F8000FF0FFF0FFF0FFF0FFF0FFF0FFF0FFF0F81
:107F9000FF0FFF0FFF0FFF0FFF0FFF0FFF0FFF0F71
:107FA000FF0FFF0FFF0FFF0FFF0FFF0FFF0FFF0F61
:107FB000FF0FFF0FFF0FFF0FFF0FFF0FFF0FFF0F51
:107FC000FF0FFF0FFF0FFF0FFF0FFF0FFF0FFF0F41
:107FD000FF0FFF0FFF0FFF0FFF0FFF0FFF0FFF0F31
:107FE000FF0FFF0FFF0FFF0FFF0FFF0FFF0FFF0F21
:107FF000FF0FFF0FFF0FFF0FFF0FFF0FFF0FFF0F11
:020000040001F9
:02000000E60216
:0A000E00CD3FE437FF3FFF1FFE3F28
:00000001FF
